{
	"data": {
		"bytecode": {
			"linkReferences": {},
			"object": "6080604052348015600e575f80fd5b506108188061001c5f395ff3fe608060405234801561000f575f80fd5b5060043610610034575f3560e01c806380be9dd414610038578063b9db15b414610054575b5f80fd5b610052600480360381019061004d919061037d565b610085565b005b61006e600480360381019061006991906103e9565b610130565b60405161007c929190610483565b60405180910390f35b5f805f8581526020019081526020015f205f0180546100a3906104de565b9050146100e5576040517f08c379a00000000000000000000000000000000000000000000000000000000081526004016100dc90610558565b60405180910390fd5b6040518060400160405280838152602001828152505f808581526020019081526020015f205f820151815f01908161011d9190610713565b5060208201518160010155905050505050565b60605f805f808581526020019081526020015f206040518060400160405290815f8201805461015e906104de565b80601f016020809104026020016040519081016040528092919081815260200182805461018a906104de565b80156101d55780601f106101ac576101008083540402835291602001916101d5565b820191905f5260205f20905b8154815290600101906020018083116101b857829003601f168201915b505050505081526020016001820154815250509050805f015181602001519250925050915091565b5f604051905090565b5f80fd5b5f80fd5b5f819050919050565b6102208161020e565b811461022a575f80fd5b50565b5f8135905061023b81610217565b92915050565b5f80fd5b5f80fd5b5f601f19601f8301169050919050565b7f4e487b71000000000000000000000000000000000000000000000000000000005f52604160045260245ffd5b61028f82610249565b810181811067ffffffffffffffff821117156102ae576102ad610259565b5b80604052505050565b5f6102c06101fd565b90506102cc8282610286565b919050565b5f67ffffffffffffffff8211156102eb576102ea610259565b5b6102f482610249565b9050602081019050919050565b828183375f83830152505050565b5f61032161031c846102d1565b6102b7565b90508281526020810184848401111561033d5761033c610245565b5b610348848285610301565b509392505050565b5f82601f83011261036457610363610241565b5b813561037484826020860161030f565b91505092915050565b5f805f6060848603121561039457610393610206565b5b5f6103a18682870161022d565b935050602084013567ffffffffffffffff8111156103c2576103c161020a565b5b6103ce86828701610350565b92505060406103df8682870161022d565b9150509250925092565b5f602082840312156103fe576103fd610206565b5b5f61040b8482850161022d565b91505092915050565b5f81519050919050565b5f82825260208201905092915050565b8281835e5f83830152505050565b5f61044682610414565b610450818561041e565b935061046081856020860161042e565b61046981610249565b840191505092915050565b61047d8161020e565b82525050565b5f6040820190508181035f83015261049b818561043c565b90506104aa6020830184610474565b9392505050565b7f4e487b71000000000000000000000000000000000000000000000000000000005f52602260045260245ffd5b5f60028204905060018216806104f557607f821691505b602082108103610508576105076104b1565b5b50919050565b7f59612065786973746520756e2070726f647563746f20636f6e206573612049445f82015250565b5f61054260208361041e565b915061054d8261050e565b602082019050919050565b5f6020820190508181035f83015261056f81610536565b9050919050565b5f819050815f5260205f209050919050565b5f6020601f8301049050919050565b5f82821b905092915050565b5f600883026105d27fffffffffffffffffffffffffffffffffffffffffffffffffffffffffffffffff82610597565b6105dc8683610597565b95508019841693508086168417925050509392505050565b5f819050919050565b5f61061761061261060d8461020e565b6105f4565b61020e565b9050919050565b5f819050919050565b610630836105fd565b61064461063c8261061e565b8484546105a3565b825550505050565b5f90565b61065861064c565b610663818484610627565b505050565b5b818110156106865761067b5f82610650565b600181019050610669565b5050565b601f8211156106cb5761069c81610576565b6106a584610588565b810160208510156106b4578190505b6106c86106c085610588565b830182610668565b50505b505050565b5f82821c905092915050565b5f6106eb5f19846008026106d0565b1980831691505092915050565b5f61070383836106dc565b9150826002028217905092915050565b61071c82610414565b67ffffffffffffffff81111561073557610734610259565b5b61073f82546104de565b61074a82828561068a565b5f60209050601f83116001811461077b575f8415610769578287015190505b61077385826106f8565b8655506107da565b601f19841661078986610576565b5f5b828110156107b05784890151825560018201915060208501945060208101905061078b565b868310156107cd57848901516107c9601f8916826106dc565b8355505b6001600288020188555050505b50505050505056fea2646970667358221220833053b76b7bb54ebfe4f9d0140cf2ce5ad1aa09c0ed188230c93c8f919f5a0464736f6c634300081a0033",
			"opcodes": "PUSH1 0x80 PUSH1 0x40 MSTORE CALLVALUE DUP1 ISZERO PUSH1 0xE JUMPI PUSH0 DUP1 REVERT JUMPDEST POP PUSH2 0x818 DUP1 PUSH2 0x1C PUSH0 CODECOPY PUSH0 RETURN INVALID PUSH1 0x80 PUSH1 0x40 MSTORE CALLVALUE DUP1 ISZERO PUSH2 0xF JUMPI PUSH0 DUP1 REVERT JUMPDEST POP PUSH1 0x4 CALLDATASIZE LT PUSH2 0x34 JUMPI PUSH0 CALLDATALOAD PUSH1 0xE0 SHR DUP1 PUSH4 0x80BE9DD4 EQ PUSH2 0x38 JUMPI DUP1 PUSH4 0xB9DB15B4 EQ PUSH2 0x54 JUMPI JUMPDEST PUSH0 DUP1 REVERT JUMPDEST PUSH2 0x52 PUSH1 0x4 DUP1 CALLDATASIZE SUB DUP2 ADD SWAP1 PUSH2 0x4D SWAP2 SWAP1 PUSH2 0x37D JUMP JUMPDEST PUSH2 0x85 JUMP JUMPDEST STOP JUMPDEST PUSH2 0x6E PUSH1 0x4 DUP1 CALLDATASIZE SUB DUP2 ADD SWAP1 PUSH2 0x69 SWAP2 SWAP1 PUSH2 0x3E9 JUMP JUMPDEST PUSH2 0x130 JUMP JUMPDEST PUSH1 0x40 MLOAD PUSH2 0x7C SWAP3 SWAP2 SWAP1 PUSH2 0x483 JUMP JUMPDEST PUSH1 0x40 MLOAD DUP1 SWAP2 SUB SWAP1 RETURN JUMPDEST PUSH0 DUP1 PUSH0 DUP6 DUP2 MSTORE PUSH1 0x20 ADD SWAP1 DUP2 MSTORE PUSH1 0x20 ADD PUSH0 KECCAK256 PUSH0 ADD DUP1 SLOAD PUSH2 0xA3 SWAP1 PUSH2 0x4DE JUMP JUMPDEST SWAP1 POP EQ PUSH2 0xE5 JUMPI PUSH1 0x40 MLOAD PUSH32 0x8C379A000000000000000000000000000000000000000000000000000000000 DUP2 MSTORE PUSH1 0x4 ADD PUSH2 0xDC SWAP1 PUSH2 0x558 JUMP JUMPDEST PUSH1 0x40 MLOAD DUP1 SWAP2 SUB SWAP1 REVERT JUMPDEST PUSH1 0x40 MLOAD DUP1 PUSH1 0x40 ADD PUSH1 0x40 MSTORE DUP1 DUP4 DUP2 MSTORE PUSH1 0x20 ADD DUP3 DUP2 MSTORE POP PUSH0 DUP1 DUP6 DUP2 MSTORE PUSH1 0x20 ADD SWAP1 DUP2 MSTORE PUSH1 0x20 ADD PUSH0 KECCAK256 PUSH0 DUP3 ADD MLOAD DUP2 PUSH0 ADD SWAP1 DUP2 PUSH2 0x11D SWAP2 SWAP1 PUSH2 0x713 JUMP JUMPDEST POP PUSH1 0x20 DUP3 ADD MLOAD DUP2 PUSH1 0x1 ADD SSTORE SWAP1 POP POP POP POP POP JUMP JUMPDEST PUSH1 0x60 PUSH0 DUP1 PUSH0 DUP1 DUP6 DUP2 MSTORE PUSH1 0x20 ADD SWAP1 DUP2 MSTORE PUSH1 0x20 ADD PUSH0 KECCAK256 PUSH1 0x40 MLOAD DUP1 PUSH1 0x40 ADD PUSH1 0x40 MSTORE SWAP1 DUP2 PUSH0 DUP3 ADD DUP1 SLOAD PUSH2 0x15E SWAP1 PUSH2 0x4DE JUMP JUMPDEST DUP1 PUSH1 0x1F ADD PUSH1 0x20 DUP1 SWAP2 DIV MUL PUSH1 0x20 ADD PUSH1 0x40 MLOAD SWAP1 DUP2 ADD PUSH1 0x40 MSTORE DUP1 SWAP3 SWAP2 SWAP1 DUP2 DUP2 MSTORE PUSH1 0x20 ADD DUP3 DUP1 SLOAD PUSH2 0x18A SWAP1 PUSH2 0x4DE JUMP JUMPDEST DUP1 ISZERO PUSH2 0x1D5 JUMPI DUP1 PUSH1 0x1F LT PUSH2 0x1AC JUMPI PUSH2 0x100 DUP1 DUP4 SLOAD DIV MUL DUP4 MSTORE SWAP2 PUSH1 0x20 ADD SWAP2 PUSH2 0x1D5 JUMP JUMPDEST DUP3 ADD SWAP2 SWAP1 PUSH0 MSTORE PUSH1 0x20 PUSH0 KECCAK256 SWAP1 JUMPDEST DUP2 SLOAD DUP2 MSTORE SWAP1 PUSH1 0x1 ADD SWAP1 PUSH1 0x20 ADD DUP1 DUP4 GT PUSH2 0x1B8 JUMPI DUP3 SWAP1 SUB PUSH1 0x1F AND DUP3 ADD SWAP2 JUMPDEST POP POP POP POP POP DUP2 MSTORE PUSH1 0x20 ADD PUSH1 0x1 DUP3 ADD SLOAD DUP2 MSTORE POP POP SWAP1 POP DUP1 PUSH0 ADD MLOAD DUP2 PUSH1 0x20 ADD MLOAD SWAP3 POP SWAP3 POP POP SWAP2 POP SWAP2 JUMP JUMPDEST PUSH0 PUSH1 0x40 MLOAD SWAP1 POP SWAP1 JUMP JUMPDEST PUSH0 DUP1 REVERT JUMPDEST PUSH0 DUP1 REVERT JUMPDEST PUSH0 DUP2 SWAP1 POP SWAP2 SWAP1 POP JUMP JUMPDEST PUSH2 0x220 DUP2 PUSH2 0x20E JUMP JUMPDEST DUP2 EQ PUSH2 0x22A JUMPI PUSH0 DUP1 REVERT JUMPDEST POP JUMP JUMPDEST PUSH0 DUP2 CALLDATALOAD SWAP1 POP PUSH2 0x23B DUP2 PUSH2 0x217 JUMP JUMPDEST SWAP3 SWAP2 POP POP JUMP JUMPDEST PUSH0 DUP1 REVERT JUMPDEST PUSH0 DUP1 REVERT JUMPDEST PUSH0 PUSH1 0x1F NOT PUSH1 0x1F DUP4 ADD AND SWAP1 POP SWAP2 SWAP1 POP JUMP JUMPDEST PUSH32 0x4E487B7100000000000000000000000000000000000000000000000000000000 PUSH0 MSTORE PUSH1 0x41 PUSH1 0x4 MSTORE PUSH1 0x24 PUSH0 REVERT JUMPDEST PUSH2 0x28F DUP3 PUSH2 0x249 JUMP JUMPDEST DUP2 ADD DUP2 DUP2 LT PUSH8 0xFFFFFFFFFFFFFFFF DUP3 GT OR ISZERO PUSH2 0x2AE JUMPI PUSH2 0x2AD PUSH2 0x259 JUMP JUMPDEST JUMPDEST DUP1 PUSH1 0x40 MSTORE POP POP POP JUMP JUMPDEST PUSH0 PUSH2 0x2C0 PUSH2 0x1FD JUMP JUMPDEST SWAP1 POP PUSH2 0x2CC DUP3 DUP3 PUSH2 0x286 JUMP JUMPDEST SWAP2 SWAP1 POP JUMP JUMPDEST PUSH0 PUSH8 0xFFFFFFFFFFFFFFFF DUP3 GT ISZERO PUSH2 0x2EB JUMPI PUSH2 0x2EA PUSH2 0x259 JUMP JUMPDEST JUMPDEST PUSH2 0x2F4 DUP3 PUSH2 0x249 JUMP JUMPDEST SWAP1 POP PUSH1 0x20 DUP2 ADD SWAP1 POP SWAP2 SWAP1 POP JUMP JUMPDEST DUP3 DUP2 DUP4 CALLDATACOPY PUSH0 DUP4 DUP4 ADD MSTORE POP POP POP JUMP JUMPDEST PUSH0 PUSH2 0x321 PUSH2 0x31C DUP5 PUSH2 0x2D1 JUMP JUMPDEST PUSH2 0x2B7 JUMP JUMPDEST SWAP1 POP DUP3 DUP2 MSTORE PUSH1 0x20 DUP2 ADD DUP5 DUP5 DUP5 ADD GT ISZERO PUSH2 0x33D JUMPI PUSH2 0x33C PUSH2 0x245 JUMP JUMPDEST JUMPDEST PUSH2 0x348 DUP5 DUP3 DUP6 PUSH2 0x301 JUMP JUMPDEST POP SWAP4 SWAP3 POP POP POP JUMP JUMPDEST PUSH0 DUP3 PUSH1 0x1F DUP4 ADD SLT PUSH2 0x364 JUMPI PUSH2 0x363 PUSH2 0x241 JUMP JUMPDEST JUMPDEST DUP2 CALLDATALOAD PUSH2 0x374 DUP5 DUP3 PUSH1 0x20 DUP7 ADD PUSH2 0x30F JUMP JUMPDEST SWAP2 POP POP SWAP3 SWAP2 POP POP JUMP JUMPDEST PUSH0 DUP1 PUSH0 PUSH1 0x60 DUP5 DUP7 SUB SLT ISZERO PUSH2 0x394 JUMPI PUSH2 0x393 PUSH2 0x206 JUMP JUMPDEST JUMPDEST PUSH0 PUSH2 0x3A1 DUP7 DUP3 DUP8 ADD PUSH2 0x22D JUMP JUMPDEST SWAP4 POP POP PUSH1 0x20 DUP5 ADD CALLDATALOAD PUSH8 0xFFFFFFFFFFFFFFFF DUP2 GT ISZERO PUSH2 0x3C2 JUMPI PUSH2 0x3C1 PUSH2 0x20A JUMP JUMPDEST JUMPDEST PUSH2 0x3CE DUP7 DUP3 DUP8 ADD PUSH2 0x350 JUMP JUMPDEST SWAP3 POP POP PUSH1 0x40 PUSH2 0x3DF DUP7 DUP3 DUP8 ADD PUSH2 0x22D JUMP JUMPDEST SWAP2 POP POP SWAP3 POP SWAP3 POP SWAP3 JUMP JUMPDEST PUSH0 PUSH1 0x20 DUP3 DUP5 SUB SLT ISZERO PUSH2 0x3FE JUMPI PUSH2 0x3FD PUSH2 0x206 JUMP JUMPDEST JUMPDEST PUSH0 PUSH2 0x40B DUP5 DUP3 DUP6 ADD PUSH2 0x22D JUMP JUMPDEST SWAP2 POP POP SWAP3 SWAP2 POP POP JUMP JUMPDEST PUSH0 DUP2 MLOAD SWAP1 POP SWAP2 SWAP1 POP JUMP JUMPDEST PUSH0 DUP3 DUP3 MSTORE PUSH1 0x20 DUP3 ADD SWAP1 POP SWAP3 SWAP2 POP POP JUMP JUMPDEST DUP3 DUP2 DUP4 MCOPY PUSH0 DUP4 DUP4 ADD MSTORE POP POP POP JUMP JUMPDEST PUSH0 PUSH2 0x446 DUP3 PUSH2 0x414 JUMP JUMPDEST PUSH2 0x450 DUP2 DUP6 PUSH2 0x41E JUMP JUMPDEST SWAP4 POP PUSH2 0x460 DUP2 DUP6 PUSH1 0x20 DUP7 ADD PUSH2 0x42E JUMP JUMPDEST PUSH2 0x469 DUP2 PUSH2 0x249 JUMP JUMPDEST DUP5 ADD SWAP2 POP POP SWAP3 SWAP2 POP POP JUMP JUMPDEST PUSH2 0x47D DUP2 PUSH2 0x20E JUMP JUMPDEST DUP3 MSTORE POP POP JUMP JUMPDEST PUSH0 PUSH1 0x40 DUP3 ADD SWAP1 POP DUP2 DUP2 SUB PUSH0 DUP4 ADD MSTORE PUSH2 0x49B DUP2 DUP6 PUSH2 0x43C JUMP JUMPDEST SWAP1 POP PUSH2 0x4AA PUSH1 0x20 DUP4 ADD DUP5 PUSH2 0x474 JUMP JUMPDEST SWAP4 SWAP3 POP POP POP JUMP JUMPDEST PUSH32 0x4E487B7100000000000000000000000000000000000000000000000000000000 PUSH0 MSTORE PUSH1 0x22 PUSH1 0x4 MSTORE PUSH1 0x24 PUSH0 REVERT JUMPDEST PUSH0 PUSH1 0x2 DUP3 DIV SWAP1 POP PUSH1 0x1 DUP3 AND DUP1 PUSH2 0x4F5 JUMPI PUSH1 0x7F DUP3 AND SWAP2 POP JUMPDEST PUSH1 0x20 DUP3 LT DUP2 SUB PUSH2 0x508 JUMPI PUSH2 0x507 PUSH2 0x4B1 JUMP JUMPDEST JUMPDEST POP SWAP2 SWAP1 POP JUMP JUMPDEST PUSH32 0x59612065786973746520756E2070726F647563746F20636F6E20657361204944 PUSH0 DUP3 ADD MSTORE POP JUMP JUMPDEST PUSH0 PUSH2 0x542 PUSH1 0x20 DUP4 PUSH2 0x41E JUMP JUMPDEST SWAP2 POP PUSH2 0x54D DUP3 PUSH2 0x50E JUMP JUMPDEST PUSH1 0x20 DUP3 ADD SWAP1 POP SWAP2 SWAP1 POP JUMP JUMPDEST PUSH0 PUSH1 0x20 DUP3 ADD SWAP1 POP DUP2 DUP2 SUB PUSH0 DUP4 ADD MSTORE PUSH2 0x56F DUP2 PUSH2 0x536 JUMP JUMPDEST SWAP1 POP SWAP2 SWAP1 POP JUMP JUMPDEST PUSH0 DUP2 SWAP1 POP DUP2 PUSH0 MSTORE PUSH1 0x20 PUSH0 KECCAK256 SWAP1 POP SWAP2 SWAP1 POP JUMP JUMPDEST PUSH0 PUSH1 0x20 PUSH1 0x1F DUP4 ADD DIV SWAP1 POP SWAP2 SWAP1 POP JUMP JUMPDEST PUSH0 DUP3 DUP3 SHL SWAP1 POP SWAP3 SWAP2 POP POP JUMP JUMPDEST PUSH0 PUSH1 0x8 DUP4 MUL PUSH2 0x5D2 PUSH32 0xFFFFFFFFFFFFFFFFFFFFFFFFFFFFFFFFFFFFFFFFFFFFFFFFFFFFFFFFFFFFFFFF DUP3 PUSH2 0x597 JUMP JUMPDEST PUSH2 0x5DC DUP7 DUP4 PUSH2 0x597 JUMP JUMPDEST SWAP6 POP DUP1 NOT DUP5 AND SWAP4 POP DUP1 DUP7 AND DUP5 OR SWAP3 POP POP POP SWAP4 SWAP3 POP POP POP JUMP JUMPDEST PUSH0 DUP2 SWAP1 POP SWAP2 SWAP1 POP JUMP JUMPDEST PUSH0 PUSH2 0x617 PUSH2 0x612 PUSH2 0x60D DUP5 PUSH2 0x20E JUMP JUMPDEST PUSH2 0x5F4 JUMP JUMPDEST PUSH2 0x20E JUMP JUMPDEST SWAP1 POP SWAP2 SWAP1 POP JUMP JUMPDEST PUSH0 DUP2 SWAP1 POP SWAP2 SWAP1 POP JUMP JUMPDEST PUSH2 0x630 DUP4 PUSH2 0x5FD JUMP JUMPDEST PUSH2 0x644 PUSH2 0x63C DUP3 PUSH2 0x61E JUMP JUMPDEST DUP5 DUP5 SLOAD PUSH2 0x5A3 JUMP JUMPDEST DUP3 SSTORE POP POP POP POP JUMP JUMPDEST PUSH0 SWAP1 JUMP JUMPDEST PUSH2 0x658 PUSH2 0x64C JUMP JUMPDEST PUSH2 0x663 DUP2 DUP5 DUP5 PUSH2 0x627 JUMP JUMPDEST POP POP POP JUMP JUMPDEST JUMPDEST DUP2 DUP2 LT ISZERO PUSH2 0x686 JUMPI PUSH2 0x67B PUSH0 DUP3 PUSH2 0x650 JUMP JUMPDEST PUSH1 0x1 DUP2 ADD SWAP1 POP PUSH2 0x669 JUMP JUMPDEST POP POP JUMP JUMPDEST PUSH1 0x1F DUP3 GT ISZERO PUSH2 0x6CB JUMPI PUSH2 0x69C DUP2 PUSH2 0x576 JUMP JUMPDEST PUSH2 0x6A5 DUP5 PUSH2 0x588 JUMP JUMPDEST DUP2 ADD PUSH1 0x20 DUP6 LT ISZERO PUSH2 0x6B4 JUMPI DUP2 SWAP1 POP JUMPDEST PUSH2 0x6C8 PUSH2 0x6C0 DUP6 PUSH2 0x588 JUMP JUMPDEST DUP4 ADD DUP3 PUSH2 0x668 JUMP JUMPDEST POP POP JUMPDEST POP POP POP JUMP JUMPDEST PUSH0 DUP3 DUP3 SHR SWAP1 POP SWAP3 SWAP2 POP POP JUMP JUMPDEST PUSH0 PUSH2 0x6EB PUSH0 NOT DUP5 PUSH1 0x8 MUL PUSH2 0x6D0 JUMP JUMPDEST NOT DUP1 DUP4 AND SWAP2 POP POP SWAP3 SWAP2 POP POP JUMP JUMPDEST PUSH0 PUSH2 0x703 DUP4 DUP4 PUSH2 0x6DC JUMP JUMPDEST SWAP2 POP DUP3 PUSH1 0x2 MUL DUP3 OR SWAP1 POP SWAP3 SWAP2 POP POP JUMP JUMPDEST PUSH2 0x71C DUP3 PUSH2 0x414 JUMP JUMPDEST PUSH8 0xFFFFFFFFFFFFFFFF DUP2 GT ISZERO PUSH2 0x735 JUMPI PUSH2 0x734 PUSH2 0x259 JUMP JUMPDEST JUMPDEST PUSH2 0x73F DUP3 SLOAD PUSH2 0x4DE JUMP JUMPDEST PUSH2 0x74A DUP3 DUP3 DUP6 PUSH2 0x68A JUMP JUMPDEST PUSH0 PUSH1 0x20 SWAP1 POP PUSH1 0x1F DUP4 GT PUSH1 0x1 DUP2 EQ PUSH2 0x77B JUMPI PUSH0 DUP5 ISZERO PUSH2 0x769 JUMPI DUP3 DUP8 ADD MLOAD SWAP1 POP JUMPDEST PUSH2 0x773 DUP6 DUP3 PUSH2 0x6F8 JUMP JUMPDEST DUP7 SSTORE POP PUSH2 0x7DA JUMP JUMPDEST PUSH1 0x1F NOT DUP5 AND PUSH2 0x789 DUP7 PUSH2 0x576 JUMP JUMPDEST PUSH0 JUMPDEST DUP3 DUP2 LT ISZERO PUSH2 0x7B0 JUMPI DUP5 DUP10 ADD MLOAD DUP3 SSTORE PUSH1 0x1 DUP3 ADD SWAP2 POP PUSH1 0x20 DUP6 ADD SWAP5 POP PUSH1 0x20 DUP2 ADD SWAP1 POP PUSH2 0x78B JUMP JUMPDEST DUP7 DUP4 LT ISZERO PUSH2 0x7CD JUMPI DUP5 DUP10 ADD MLOAD PUSH2 0x7C9 PUSH1 0x1F DUP10 AND DUP3 PUSH2 0x6DC JUMP JUMPDEST DUP4 SSTORE POP JUMPDEST PUSH1 0x1 PUSH1 0x2 DUP9 MUL ADD DUP9 SSTORE POP POP POP JUMPDEST POP POP POP POP POP POP JUMP INVALID LOG2 PUSH5 0x6970667358 0x22 SLT KECCAK256 DUP4 ADDRESS MSTORE8 0xB7 PUSH12 0x7BB54EBFE4F9D0140CF2CE5A 0xD1 0xAA MULMOD 0xC0 0xED XOR DUP3 ADDRESS 0xC9 EXTCODECOPY DUP16 SWAP2 SWAP16 GAS DIV PUSH5 0x736F6C6343 STOP ADDMOD BYTE STOP CALLER "
		},
		"gasEstimates": {
			"creation": {
				"codeDepositCost": "414400",
				"executionCost": "447",
				"totalCost": "414847"
			},
			"external": {
				"getProduct(uint256)": "infinite",
				"registerProduct(uint256,string,uint256)": "infinite"
			}
		},
		"methodIdentifiers": {
			"getProduct(uint256)": "b9db15b4",
			"registerProduct(uint256,string,uint256)": "80be9dd4"
		}
	},
	"abi": [
		{
			"inputs": [
				{
					"internalType": "uint256",
					"name": "_id",
					"type": "uint256"
				}
			],
			"name": "getProduct",
			"outputs": [
				{
					"internalType": "string",
					"name": "",
					"type": "string"
				},
				{
					"internalType": "uint256",
					"name": "",
					"type": "uint256"
				}
			],
			"stateMutability": "view",
			"type": "function"
		},
		{
			"inputs": [
				{
					"internalType": "uint256",
					"name": "_id",
					"type": "uint256"
				},
				{
					"internalType": "string",
					"name": "_name",
					"type": "string"
				},
				{
					"internalType": "uint256",
					"name": "_price",
					"type": "uint256"
				}
			],
			"name": "registerProduct",
			"outputs": [],
			"stateMutability": "nonpayable",
			"type": "function"
		}
	]
}